{
  "_format": "hh-sol-artifact-1",
  "contractName": "MilestonePayments",
  "sourceName": "contracts/MilestonePayments.sol",
  "abi": [
    {
      "anonymous": false,
      "inputs": [
        {
          "indexed": false,
          "internalType": "uint256",
          "name": "milestoneId",
          "type": "uint256"
        }
      ],
      "name": "MilestoneMarkedComplete",
      "type": "event"
    },
    {
      "anonymous": false,
      "inputs": [
        {
          "indexed": false,
          "internalType": "uint256",
          "name": "milestoneId",
          "type": "uint256"
        },
        {
          "indexed": false,
          "internalType": "uint256",
          "name": "amount",
          "type": "uint256"
        },
        {
          "indexed": false,
          "internalType": "address",
          "name": "contractor",
          "type": "address"
        }
      ],
      "name": "MilestonePaid",
      "type": "event"
    },
    {
      "inputs": [
        {
          "internalType": "uint256",
          "name": "milestoneId",
          "type": "uint256"
        }
      ],
      "name": "markMilestoneComplete",
      "outputs": [],
      "stateMutability": "nonpayable",
      "type": "function"
    },
    {
      "inputs": [
        {
          "internalType": "uint256",
          "name": "milestoneId",
          "type": "uint256"
        },
        {
          "internalType": "uint256",
          "name": "amount",
          "type": "uint256"
        },
        {
          "internalType": "address",
          "name": "contractor",
          "type": "address"
        }
      ],
      "name": "payMilestone",
      "outputs": [],
      "stateMutability": "nonpayable",
      "type": "function"
    }
  ],
  "bytecode": "0x608060405234801561001057600080fd5b506102ac806100206000396000f3fe608060405234801561001057600080fd5b50600436106100365760003560e01c80636a106b481461003b578063ee9a543214610057575b600080fd5b61005560048036038101906100509190610186565b610073565b005b610071600480360381019061006c91906101d9565b6100b3565b005b7ff70877c31049422fb3ded79b45c22d4269a7bd4fe64337939a2794c492273a108383836040516100a693929190610224565b60405180910390a1505050565b7f8faf52ef626f7295b5f0926a691957c00c17be9e98e6e208582ba4d54a97caec816040516100e2919061025b565b60405180910390a150565b600080fd5b6000819050919050565b610105816100f2565b811461011057600080fd5b50565b600081359050610122816100fc565b92915050565b600073ffffffffffffffffffffffffffffffffffffffff82169050919050565b600061015382610128565b9050919050565b61016381610148565b811461016e57600080fd5b50565b6000813590506101808161015a565b92915050565b60008060006060848603121561019f5761019e6100ed565b5b60006101ad86828701610113565b93505060206101be86828701610113565b92505060406101cf86828701610171565b9150509250925092565b6000602082840312156101ef576101ee6100ed565b5b60006101fd84828501610113565b91505092915050565b61020f816100f2565b82525050565b61021e81610148565b82525050565b60006060820190506102396000830186610206565b6102466020830185610206565b6102536040830184610215565b949350505050565b60006020820190506102706000830184610206565b9291505056fea2646970667358221220bcef91076676e51e0d17c36042e5f3d72ffd25d04cc83010b5491a81fa04789f64736f6c63430008140033",
  "linkReferences": {},
  "deployedLinkReferences": {}
}