{"contracts/IncidentWasteLog.sol":{"IncidentWasteLog":{"abi":[{"anonymous":false,"inputs":[{"indexed":false,"internalType":"uint256","name":"id","type":"uint256"},{"indexed":false,"internalType":"string","name":"description","type":"string"},{"indexed":false,"internalType":"address","name":"reporter","type":"address"},{"indexed":false,"internalType":"uint256","name":"timestamp","type":"uint256"}],"name":"IncidentReported","type":"event"},{"anonymous":false,"inputs":[{"indexed":false,"internalType":"uint256","name":"id","type":"uint256"},{"indexed":false,"internalType":"string","name":"materialType","type":"string"},{"indexed":false,"internalType":"uint256","name":"quantity","type":"uint256"},{"indexed":false,"internalType":"string","name":"site","type":"string"},{"indexed":false,"internalType":"address","name":"logger","type":"address"},{"indexed":false,"internalType":"uint256","name":"timestamp","type":"uint256"}],"name":"WasteLogged","type":"event"},{"inputs":[],"name":"incidentCount","outputs":[{"internalType":"uint256","name":"","type":"uint256"}],"stateMutability":"view","type":"function"},{"inputs":[{"internalType":"string","name":"materialType","type":"string"},{"internalType":"uint256","name":"quantity","type":"uint256"},{"internalType":"string","name":"site","type":"string"}],"name":"logWaste","outputs":[],"stateMutability":"nonpayable","type":"function"},{"inputs":[{"internalType":"string","name":"description","type":"string"}],"name":"reportIncident","outputs":[],"stateMutability":"nonpayable","type":"function"},{"inputs":[],"name":"wasteLogCount","outputs":[{"internalType":"uint256","name":"","type":"uint256"}],"stateMutability":"view","type":"function"}],"evm":{"bytecode":{"linkReferences":{},"object":"608060405234801561001057600080fd5b50610640806100206000396000f3fe608060405234801561001057600080fd5b506004361061004c5760003560e01c80631c4077d9146100515780633310d9621461006d578063a09b86ac14610089578063e39c69e1146100a7575b600080fd5b61006b600480360381019061006691906102e4565b6100c5565b005b61008760048036038101906100829190610363565b61011e565b005b61009161017e565b60405161009e91906103fd565b60405180910390f35b6100af610184565b6040516100bc91906103fd565b60405180910390f35b6000808154809291906100d790610447565b91905055507fae643f6e054de1b54c8f7fbb30a86bbd12b5d8eaab1c0d85e885fd37ee9b9a09600054823342604051610113949392919061054f565b60405180910390a150565b6001600081548092919061013190610447565b91905055507f078c61106e782df4dc16e4975e8998d11032d245f535856bcb2cd59dd21d5dc460015484848433426040516101719695949392919061059b565b60405180910390a1505050565b60005481565b60015481565b6000604051905090565b600080fd5b600080fd5b600080fd5b600080fd5b6000601f19601f8301169050919050565b7f4e487b7100000000000000000000000000000000000000000000000000000000600052604160045260246000fd5b6101f1826101a8565b810181811067ffffffffffffffff821117156102105761020f6101b9565b5b80604052505050565b600061022361018a565b905061022f82826101e8565b919050565b600067ffffffffffffffff82111561024f5761024e6101b9565b5b610258826101a8565b9050602081019050919050565b82818337600083830152505050565b600061028761028284610234565b610219565b9050828152602081018484840111156102a3576102a26101a3565b5b6102ae848285610265565b509392505050565b600082601f8301126102cb576102ca61019e565b5b81356102db848260208601610274565b91505092915050565b6000602082840312156102fa576102f9610194565b5b600082013567ffffffffffffffff81111561031857610317610199565b5b610324848285016102b6565b91505092915050565b6000819050919050565b6103408161032d565b811461034b57600080fd5b50565b60008135905061035d81610337565b92915050565b60008060006060848603121561037c5761037b610194565b5b600084013567ffffffffffffffff81111561039a57610399610199565b5b6103a6868287016102b6565b93505060206103b78682870161034e565b925050604084013567ffffffffffffffff8111156103d8576103d7610199565b5b6103e4868287016102b6565b9150509250925092565b6103f78161032d565b82525050565b600060208201905061041260008301846103ee565b92915050565b7f4e487b7100000000000000000000000000000000000000000000000000000000600052601160045260246000fd5b60006104528261032d565b91507fffffffffffffffffffffffffffffffffffffffffffffffffffffffffffffffff820361048457610483610418565b5b600182019050919050565b600081519050919050565b600082825260208201905092915050565b60005b838110156104c95780820151818401526020810190506104ae565b60008484015250505050565b60006104e08261048f565b6104ea818561049a565b93506104fa8185602086016104ab565b610503816101a8565b840191505092915050565b600073ffffffffffffffffffffffffffffffffffffffff82169050919050565b60006105398261050e565b9050919050565b6105498161052e565b82525050565b600060808201905061056460008301876103ee565b818103602083015261057681866104d5565b90506105856040830185610540565b61059260608301846103ee565b95945050505050565b600060c0820190506105b060008301896103ee565b81810360208301526105c281886104d5565b90506105d160408301876103ee565b81810360608301526105e381866104d5565b90506105f26080830185610540565b6105ff60a08301846103ee565b97965050505050505056fea2646970667358221220193cd3f5581eefb72c9210105116dd5c13d7a1361004ad08d30b6776ae4ab6a364736f6c63430008140033","opcodes":"PUSH1 0x80 PUSH1 0x40 MSTORE CALLVALUE DUP1 ISZERO PUSH2 0x10 JUMPI PUSH1 0x0 DUP1 REVERT JUMPDEST POP PUSH2 0x640 DUP1 PUSH2 0x20 PUSH1 0x0 CODECOPY PUSH1 0x0 RETURN INVALID PUSH1 0x80 PUSH1 0x40 MSTORE CALLVALUE DUP1 ISZERO PUSH2 0x10 JUMPI PUSH1 0x0 DUP1 REVERT JUMPDEST POP PUSH1 0x4 CALLDATASIZE LT PUSH2 0x4C JUMPI PUSH1 0x0 CALLDATALOAD PUSH1 0xE0 SHR DUP1 PUSH4 0x1C4077D9 EQ PUSH2 0x51 JUMPI DUP1 PUSH4 0x3310D962 EQ PUSH2 0x6D JUMPI DUP1 PUSH4 0xA09B86AC EQ PUSH2 0x89 JUMPI DUP1 PUSH4 0xE39C69E1 EQ PUSH2 0xA7 JUMPI JUMPDEST PUSH1 0x0 DUP1 REVERT JUMPDEST PUSH2 0x6B PUSH1 0x4 DUP1 CALLDATASIZE SUB DUP2 ADD SWAP1 PUSH2 0x66 SWAP2 SWAP1 PUSH2 0x2E4 JUMP JUMPDEST PUSH2 0xC5 JUMP JUMPDEST STOP JUMPDEST PUSH2 0x87 PUSH1 0x4 DUP1 CALLDATASIZE SUB DUP2 ADD SWAP1 PUSH2 0x82 SWAP2 SWAP1 PUSH2 0x363 JUMP JUMPDEST PUSH2 0x11E JUMP JUMPDEST STOP JUMPDEST PUSH2 0x91 PUSH2 0x17E JUMP JUMPDEST PUSH1 0x40 MLOAD PUSH2 0x9E SWAP2 SWAP1 PUSH2 0x3FD JUMP JUMPDEST PUSH1 0x40 MLOAD DUP1 SWAP2 SUB SWAP1 RETURN JUMPDEST PUSH2 0xAF PUSH2 0x184 JUMP JUMPDEST PUSH1 0x40 MLOAD PUSH2 0xBC SWAP2 SWAP1 PUSH2 0x3FD JUMP JUMPDEST PUSH1 0x40 MLOAD DUP1 SWAP2 SUB SWAP1 RETURN JUMPDEST PUSH1 0x0 DUP1 DUP2 SLOAD DUP1 SWAP3 SWAP2 SWAP1 PUSH2 0xD7 SWAP1 PUSH2 0x447 JUMP JUMPDEST SWAP2 SWAP1 POP SSTORE POP PUSH32 0xAE643F6E054DE1B54C8F7FBB30A86BBD12B5D8EAAB1C0D85E885FD37EE9B9A09 PUSH1 0x0 SLOAD DUP3 CALLER TIMESTAMP PUSH1 0x40 MLOAD PUSH2 0x113 SWAP5 SWAP4 SWAP3 SWAP2 SWAP1 PUSH2 0x54F JUMP JUMPDEST PUSH1 0x40 MLOAD DUP1 SWAP2 SUB SWAP1 LOG1 POP JUMP JUMPDEST PUSH1 0x1 PUSH1 0x0 DUP2 SLOAD DUP1 SWAP3 SWAP2 SWAP1 PUSH2 0x131 SWAP1 PUSH2 0x447 JUMP JUMPDEST SWAP2 SWAP1 POP SSTORE POP PUSH32 0x78C61106E782DF4DC16E4975E8998D11032D245F535856BCB2CD59DD21D5DC4 PUSH1 0x1 SLOAD DUP5 DUP5 DUP5 CALLER TIMESTAMP PUSH1 0x40 MLOAD PUSH2 0x171 SWAP7 SWAP6 SWAP5 SWAP4 SWAP3 SWAP2 SWAP1 PUSH2 0x59B JUMP JUMPDEST PUSH1 0x40 MLOAD DUP1 SWAP2 SUB SWAP1 LOG1 POP POP POP JUMP JUMPDEST PUSH1 0x0 SLOAD DUP2 JUMP JUMPDEST PUSH1 0x1 SLOAD DUP2 JUMP JUMPDEST PUSH1 0x0 PUSH1 0x40 MLOAD SWAP1 POP SWAP1 JUMP JUMPDEST PUSH1 0x0 DUP1 REVERT JUMPDEST PUSH1 0x0 DUP1 REVERT JUMPDEST PUSH1 0x0 DUP1 REVERT JUMPDEST PUSH1 0x0 DUP1 REVERT JUMPDEST PUSH1 0x0 PUSH1 0x1F NOT PUSH1 0x1F DUP4 ADD AND SWAP1 POP SWAP2 SWAP1 POP JUMP JUMPDEST PUSH32 0x4E487B7100000000000000000000000000000000000000000000000000000000 PUSH1 0x0 MSTORE PUSH1 0x41 PUSH1 0x4 MSTORE PUSH1 0x24 PUSH1 0x0 REVERT JUMPDEST PUSH2 0x1F1 DUP3 PUSH2 0x1A8 JUMP JUMPDEST DUP2 ADD DUP2 DUP2 LT PUSH8 0xFFFFFFFFFFFFFFFF DUP3 GT OR ISZERO PUSH2 0x210 JUMPI PUSH2 0x20F PUSH2 0x1B9 JUMP JUMPDEST JUMPDEST DUP1 PUSH1 0x40 MSTORE POP POP POP JUMP JUMPDEST PUSH1 0x0 PUSH2 0x223 PUSH2 0x18A JUMP JUMPDEST SWAP1 POP PUSH2 0x22F DUP3 DUP3 PUSH2 0x1E8 JUMP JUMPDEST SWAP2 SWAP1 POP JUMP JUMPDEST PUSH1 0x0 PUSH8 0xFFFFFFFFFFFFFFFF DUP3 GT ISZERO PUSH2 0x24F JUMPI PUSH2 0x24E PUSH2 0x1B9 JUMP JUMPDEST JUMPDEST PUSH2 0x258 DUP3 PUSH2 0x1A8 JUMP JUMPDEST SWAP1 POP PUSH1 0x20 DUP2 ADD SWAP1 POP SWAP2 SWAP1 POP JUMP JUMPDEST DUP3 DUP2 DUP4 CALLDATACOPY PUSH1 0x0 DUP4 DUP4 ADD MSTORE POP POP POP JUMP JUMPDEST PUSH1 0x0 PUSH2 0x287 PUSH2 0x282 DUP5 PUSH2 0x234 JUMP JUMPDEST PUSH2 0x219 JUMP JUMPDEST SWAP1 POP DUP3 DUP2 MSTORE PUSH1 0x20 DUP2 ADD DUP5 DUP5 DUP5 ADD GT ISZERO PUSH2 0x2A3 JUMPI PUSH2 0x2A2 PUSH2 0x1A3 JUMP JUMPDEST JUMPDEST PUSH2 0x2AE DUP5 DUP3 DUP6 PUSH2 0x265 JUMP JUMPDEST POP SWAP4 SWAP3 POP POP POP JUMP JUMPDEST PUSH1 0x0 DUP3 PUSH1 0x1F DUP4 ADD SLT PUSH2 0x2CB JUMPI PUSH2 0x2CA PUSH2 0x19E JUMP JUMPDEST JUMPDEST DUP2 CALLDATALOAD PUSH2 0x2DB DUP5 DUP3 PUSH1 0x20 DUP7 ADD PUSH2 0x274 JUMP JUMPDEST SWAP2 POP POP SWAP3 SWAP2 POP POP JUMP JUMPDEST PUSH1 0x0 PUSH1 0x20 DUP3 DUP5 SUB SLT ISZERO PUSH2 0x2FA JUMPI PUSH2 0x2F9 PUSH2 0x194 JUMP JUMPDEST JUMPDEST PUSH1 0x0 DUP3 ADD CALLDATALOAD PUSH8 0xFFFFFFFFFFFFFFFF DUP2 GT ISZERO PUSH2 0x318 JUMPI PUSH2 0x317 PUSH2 0x199 JUMP JUMPDEST JUMPDEST PUSH2 0x324 DUP5 DUP3 DUP6 ADD PUSH2 0x2B6 JUMP JUMPDEST SWAP2 POP POP SWAP3 SWAP2 POP POP JUMP JUMPDEST PUSH1 0x0 DUP2 SWAP1 POP SWAP2 SWAP1 POP JUMP JUMPDEST PUSH2 0x340 DUP2 PUSH2 0x32D JUMP JUMPDEST DUP2 EQ PUSH2 0x34B JUMPI PUSH1 0x0 DUP1 REVERT JUMPDEST POP JUMP JUMPDEST PUSH1 0x0 DUP2 CALLDATALOAD SWAP1 POP PUSH2 0x35D DUP2 PUSH2 0x337 JUMP JUMPDEST SWAP3 SWAP2 POP POP JUMP JUMPDEST PUSH1 0x0 DUP1 PUSH1 0x0 PUSH1 0x60 DUP5 DUP7 SUB SLT ISZERO PUSH2 0x37C JUMPI PUSH2 0x37B PUSH2 0x194 JUMP JUMPDEST JUMPDEST PUSH1 0x0 DUP5 ADD CALLDATALOAD PUSH8 0xFFFFFFFFFFFFFFFF DUP2 GT ISZERO PUSH2 0x39A JUMPI PUSH2 0x399 PUSH2 0x199 JUMP JUMPDEST JUMPDEST PUSH2 0x3A6 DUP7 DUP3 DUP8 ADD PUSH2 0x2B6 JUMP JUMPDEST SWAP4 POP POP PUSH1 0x20 PUSH2 0x3B7 DUP7 DUP3 DUP8 ADD PUSH2 0x34E JUMP JUMPDEST SWAP3 POP POP PUSH1 0x40 DUP5 ADD CALLDATALOAD PUSH8 0xFFFFFFFFFFFFFFFF DUP2 GT ISZERO PUSH2 0x3D8 JUMPI PUSH2 0x3D7 PUSH2 0x199 JUMP JUMPDEST JUMPDEST PUSH2 0x3E4 DUP7 DUP3 DUP8 ADD PUSH2 0x2B6 JUMP JUMPDEST SWAP2 POP POP SWAP3 POP SWAP3 POP SWAP3 JUMP JUMPDEST PUSH2 0x3F7 DUP2 PUSH2 0x32D JUMP JUMPDEST DUP3 MSTORE POP POP JUMP JUMPDEST PUSH1 0x0 PUSH1 0x20 DUP3 ADD SWAP1 POP PUSH2 0x412 PUSH1 0x0 DUP4 ADD DUP5 PUSH2 0x3EE JUMP JUMPDEST SWAP3 SWAP2 POP POP JUMP JUMPDEST PUSH32 0x4E487B7100000000000000000000000000000000000000000000000000000000 PUSH1 0x0 MSTORE PUSH1 0x11 PUSH1 0x4 MSTORE PUSH1 0x24 PUSH1 0x0 REVERT JUMPDEST PUSH1 0x0 PUSH2 0x452 DUP3 PUSH2 0x32D JUMP JUMPDEST SWAP2 POP PUSH32 0xFFFFFFFFFFFFFFFFFFFFFFFFFFFFFFFFFFFFFFFFFFFFFFFFFFFFFFFFFFFFFFFF DUP3 SUB PUSH2 0x484 JUMPI PUSH2 0x483 PUSH2 0x418 JUMP JUMPDEST JUMPDEST PUSH1 0x1 DUP3 ADD SWAP1 POP SWAP2 SWAP1 POP JUMP JUMPDEST PUSH1 0x0 DUP2 MLOAD SWAP1 POP SWAP2 SWAP1 POP JUMP JUMPDEST PUSH1 0x0 DUP3 DUP3 MSTORE PUSH1 0x20 DUP3 ADD SWAP1 POP SWAP3 SWAP2 POP POP JUMP JUMPDEST PUSH1 0x0 JUMPDEST DUP4 DUP2 LT ISZERO PUSH2 0x4C9 JUMPI DUP1 DUP3 ADD MLOAD DUP2 DUP5 ADD MSTORE PUSH1 0x20 DUP2 ADD SWAP1 POP PUSH2 0x4AE JUMP JUMPDEST PUSH1 0x0 DUP5 DUP5 ADD MSTORE POP POP POP POP JUMP JUMPDEST PUSH1 0x0 PUSH2 0x4E0 DUP3 PUSH2 0x48F JUMP JUMPDEST PUSH2 0x4EA DUP2 DUP6 PUSH2 0x49A JUMP JUMPDEST SWAP4 POP PUSH2 0x4FA DUP2 DUP6 PUSH1 0x20 DUP7 ADD PUSH2 0x4AB JUMP JUMPDEST PUSH2 0x503 DUP2 PUSH2 0x1A8 JUMP JUMPDEST DUP5 ADD SWAP2 POP POP SWAP3 SWAP2 POP POP JUMP JUMPDEST PUSH1 0x0 PUSH20 0xFFFFFFFFFFFFFFFFFFFFFFFFFFFFFFFFFFFFFFFF DUP3 AND SWAP1 POP SWAP2 SWAP1 POP JUMP JUMPDEST PUSH1 0x0 PUSH2 0x539 DUP3 PUSH2 0x50E JUMP JUMPDEST SWAP1 POP SWAP2 SWAP1 POP JUMP JUMPDEST PUSH2 0x549 DUP2 PUSH2 0x52E JUMP JUMPDEST DUP3 MSTORE POP POP JUMP JUMPDEST PUSH1 0x0 PUSH1 0x80 DUP3 ADD SWAP1 POP PUSH2 0x564 PUSH1 0x0 DUP4 ADD DUP8 PUSH2 0x3EE JUMP JUMPDEST DUP2 DUP2 SUB PUSH1 0x20 DUP4 ADD MSTORE PUSH2 0x576 DUP2 DUP7 PUSH2 0x4D5 JUMP JUMPDEST SWAP1 POP PUSH2 0x585 PUSH1 0x40 DUP4 ADD DUP6 PUSH2 0x540 JUMP JUMPDEST PUSH2 0x592 PUSH1 0x60 DUP4 ADD DUP5 PUSH2 0x3EE JUMP JUMPDEST SWAP6 SWAP5 POP POP POP POP POP JUMP JUMPDEST PUSH1 0x0 PUSH1 0xC0 DUP3 ADD SWAP1 POP PUSH2 0x5B0 PUSH1 0x0 DUP4 ADD DUP10 PUSH2 0x3EE JUMP JUMPDEST DUP2 DUP2 SUB PUSH1 0x20 DUP4 ADD MSTORE PUSH2 0x5C2 DUP2 DUP9 PUSH2 0x4D5 JUMP JUMPDEST SWAP1 POP PUSH2 0x5D1 PUSH1 0x40 DUP4 ADD DUP8 PUSH2 0x3EE JUMP JUMPDEST DUP2 DUP2 SUB PUSH1 0x60 DUP4 ADD MSTORE PUSH2 0x5E3 DUP2 DUP7 PUSH2 0x4D5 JUMP JUMPDEST SWAP1 POP PUSH2 0x5F2 PUSH1 0x80 DUP4 ADD DUP6 PUSH2 0x540 JUMP JUMPDEST PUSH2 0x5FF PUSH1 0xA0 DUP4 ADD DUP5 PUSH2 0x3EE JUMP JUMPDEST SWAP8 SWAP7 POP POP POP POP POP POP POP JUMP INVALID LOG2 PUSH5 0x6970667358 0x22 SLT KECCAK256 NOT EXTCODECOPY 0xD3 CREATE2 PC 0x1E 0xEF 0xB7 0x2C SWAP3 LT LT MLOAD AND 0xDD 0x5C SGT 0xD7 LOG1 CALLDATASIZE LT DIV 0xAD ADDMOD 0xD3 SIGNEXTEND PUSH8 0x76AE4AB6A364736F PUSH13 0x63430008140033000000000000 "},"methodIdentifiers":{"incidentCount()":"a09b86ac","logWaste(string,uint256,string)":"3310d962","reportIncident(string)":"1c4077d9","wasteLogCount()":"e39c69e1"}}}}}