{"contracts/MilestonePayments.sol":{"MilestonePayments":{"abi":[{"anonymous":false,"inputs":[{"indexed":false,"internalType":"uint256","name":"milestoneId","type":"uint256"}],"name":"MilestoneMarkedComplete","type":"event"},{"anonymous":false,"inputs":[{"indexed":false,"internalType":"uint256","name":"milestoneId","type":"uint256"},{"indexed":false,"internalType":"uint256","name":"amount","type":"uint256"},{"indexed":false,"internalType":"address","name":"contractor","type":"address"}],"name":"MilestonePaid","type":"event"},{"inputs":[{"internalType":"uint256","name":"milestoneId","type":"uint256"}],"name":"markMilestoneComplete","outputs":[],"stateMutability":"nonpayable","type":"function"},{"inputs":[{"internalType":"uint256","name":"milestoneId","type":"uint256"},{"internalType":"uint256","name":"amount","type":"uint256"},{"internalType":"address","name":"contractor","type":"address"}],"name":"payMilestone","outputs":[],"stateMutability":"nonpayable","type":"function"}],"evm":{"bytecode":{"linkReferences":{},"object":"608060405234801561001057600080fd5b506102ac806100206000396000f3fe608060405234801561001057600080fd5b50600436106100365760003560e01c80636a106b481461003b578063ee9a543214610057575b600080fd5b61005560048036038101906100509190610186565b610073565b005b610071600480360381019061006c91906101d9565b6100b3565b005b7ff70877c31049422fb3ded79b45c22d4269a7bd4fe64337939a2794c492273a108383836040516100a693929190610224565b60405180910390a1505050565b7f8faf52ef626f7295b5f0926a691957c00c17be9e98e6e208582ba4d54a97caec816040516100e2919061025b565b60405180910390a150565b600080fd5b6000819050919050565b610105816100f2565b811461011057600080fd5b50565b600081359050610122816100fc565b92915050565b600073ffffffffffffffffffffffffffffffffffffffff82169050919050565b600061015382610128565b9050919050565b61016381610148565b811461016e57600080fd5b50565b6000813590506101808161015a565b92915050565b60008060006060848603121561019f5761019e6100ed565b5b60006101ad86828701610113565b93505060206101be86828701610113565b92505060406101cf86828701610171565b9150509250925092565b6000602082840312156101ef576101ee6100ed565b5b60006101fd84828501610113565b91505092915050565b61020f816100f2565b82525050565b61021e81610148565b82525050565b60006060820190506102396000830186610206565b6102466020830185610206565b6102536040830184610215565b949350505050565b60006020820190506102706000830184610206565b9291505056fea2646970667358221220bcef91076676e51e0d17c36042e5f3d72ffd25d04cc83010b5491a81fa04789f64736f6c63430008140033","opcodes":"PUSH1 0x80 PUSH1 0x40 MSTORE CALLVALUE DUP1 ISZERO PUSH2 0x10 JUMPI PUSH1 0x0 DUP1 REVERT JUMPDEST POP PUSH2 0x2AC DUP1 PUSH2 0x20 PUSH1 0x0 CODECOPY PUSH1 0x0 RETURN INVALID PUSH1 0x80 PUSH1 0x40 MSTORE CALLVALUE DUP1 ISZERO PUSH2 0x10 JUMPI PUSH1 0x0 DUP1 REVERT JUMPDEST POP PUSH1 0x4 CALLDATASIZE LT PUSH2 0x36 JUMPI PUSH1 0x0 CALLDATALOAD PUSH1 0xE0 SHR DUP1 PUSH4 0x6A106B48 EQ PUSH2 0x3B JUMPI DUP1 PUSH4 0xEE9A5432 EQ PUSH2 0x57 JUMPI JUMPDEST PUSH1 0x0 DUP1 REVERT JUMPDEST PUSH2 0x55 PUSH1 0x4 DUP1 CALLDATASIZE SUB DUP2 ADD SWAP1 PUSH2 0x50 SWAP2 SWAP1 PUSH2 0x186 JUMP JUMPDEST PUSH2 0x73 JUMP JUMPDEST STOP JUMPDEST PUSH2 0x71 PUSH1 0x4 DUP1 CALLDATASIZE SUB DUP2 ADD SWAP1 PUSH2 0x6C SWAP2 SWAP1 PUSH2 0x1D9 JUMP JUMPDEST PUSH2 0xB3 JUMP JUMPDEST STOP JUMPDEST PUSH32 0xF70877C31049422FB3DED79B45C22D4269A7BD4FE64337939A2794C492273A10 DUP4 DUP4 DUP4 PUSH1 0x40 MLOAD PUSH2 0xA6 SWAP4 SWAP3 SWAP2 SWAP1 PUSH2 0x224 JUMP JUMPDEST PUSH1 0x40 MLOAD DUP1 SWAP2 SUB SWAP1 LOG1 POP POP POP JUMP JUMPDEST PUSH32 0x8FAF52EF626F7295B5F0926A691957C00C17BE9E98E6E208582BA4D54A97CAEC DUP2 PUSH1 0x40 MLOAD PUSH2 0xE2 SWAP2 SWAP1 PUSH2 0x25B JUMP JUMPDEST PUSH1 0x40 MLOAD DUP1 SWAP2 SUB SWAP1 LOG1 POP JUMP JUMPDEST PUSH1 0x0 DUP1 REVERT JUMPDEST PUSH1 0x0 DUP2 SWAP1 POP SWAP2 SWAP1 POP JUMP JUMPDEST PUSH2 0x105 DUP2 PUSH2 0xF2 JUMP JUMPDEST DUP2 EQ PUSH2 0x110 JUMPI PUSH1 0x0 DUP1 REVERT JUMPDEST POP JUMP JUMPDEST PUSH1 0x0 DUP2 CALLDATALOAD SWAP1 POP PUSH2 0x122 DUP2 PUSH2 0xFC JUMP JUMPDEST SWAP3 SWAP2 POP POP JUMP JUMPDEST PUSH1 0x0 PUSH20 0xFFFFFFFFFFFFFFFFFFFFFFFFFFFFFFFFFFFFFFFF DUP3 AND SWAP1 POP SWAP2 SWAP1 POP JUMP JUMPDEST PUSH1 0x0 PUSH2 0x153 DUP3 PUSH2 0x128 JUMP JUMPDEST SWAP1 POP SWAP2 SWAP1 POP JUMP JUMPDEST PUSH2 0x163 DUP2 PUSH2 0x148 JUMP JUMPDEST DUP2 EQ PUSH2 0x16E JUMPI PUSH1 0x0 DUP1 REVERT JUMPDEST POP JUMP JUMPDEST PUSH1 0x0 DUP2 CALLDATALOAD SWAP1 POP PUSH2 0x180 DUP2 PUSH2 0x15A JUMP JUMPDEST SWAP3 SWAP2 POP POP JUMP JUMPDEST PUSH1 0x0 DUP1 PUSH1 0x0 PUSH1 0x60 DUP5 DUP7 SUB SLT ISZERO PUSH2 0x19F JUMPI PUSH2 0x19E PUSH2 0xED JUMP JUMPDEST JUMPDEST PUSH1 0x0 PUSH2 0x1AD DUP7 DUP3 DUP8 ADD PUSH2 0x113 JUMP JUMPDEST SWAP4 POP POP PUSH1 0x20 PUSH2 0x1BE DUP7 DUP3 DUP8 ADD PUSH2 0x113 JUMP JUMPDEST SWAP3 POP POP PUSH1 0x40 PUSH2 0x1CF DUP7 DUP3 DUP8 ADD PUSH2 0x171 JUMP JUMPDEST SWAP2 POP POP SWAP3 POP SWAP3 POP SWAP3 JUMP JUMPDEST PUSH1 0x0 PUSH1 0x20 DUP3 DUP5 SUB SLT ISZERO PUSH2 0x1EF JUMPI PUSH2 0x1EE PUSH2 0xED JUMP JUMPDEST JUMPDEST PUSH1 0x0 PUSH2 0x1FD DUP5 DUP3 DUP6 ADD PUSH2 0x113 JUMP JUMPDEST SWAP2 POP POP SWAP3 SWAP2 POP POP JUMP JUMPDEST PUSH2 0x20F DUP2 PUSH2 0xF2 JUMP JUMPDEST DUP3 MSTORE POP POP JUMP JUMPDEST PUSH2 0x21E DUP2 PUSH2 0x148 JUMP JUMPDEST DUP3 MSTORE POP POP JUMP JUMPDEST PUSH1 0x0 PUSH1 0x60 DUP3 ADD SWAP1 POP PUSH2 0x239 PUSH1 0x0 DUP4 ADD DUP7 PUSH2 0x206 JUMP JUMPDEST PUSH2 0x246 PUSH1 0x20 DUP4 ADD DUP6 PUSH2 0x206 JUMP JUMPDEST PUSH2 0x253 PUSH1 0x40 DUP4 ADD DUP5 PUSH2 0x215 JUMP JUMPDEST SWAP5 SWAP4 POP POP POP POP JUMP JUMPDEST PUSH1 0x0 PUSH1 0x20 DUP3 ADD SWAP1 POP PUSH2 0x270 PUSH1 0x0 DUP4 ADD DUP5 PUSH2 0x206 JUMP JUMPDEST SWAP3 SWAP2 POP POP JUMP INVALID LOG2 PUSH5 0x6970667358 0x22 SLT KECCAK256 0xBC 0xEF SWAP2 SMOD PUSH7 0x76E51E0D17C360 TIMESTAMP 0xE5 RETURN 0xD7 0x2F REVERT 0x25 0xD0 0x4C 0xC8 ADDRESS LT 0xB5 0x49 BYTE DUP2 STATICCALL DIV PUSH25 0x9F64736F6C6343000814003300000000000000000000000000 "},"methodIdentifiers":{"markMilestoneComplete(uint256)":"ee9a5432","payMilestone(uint256,uint256,address)":"6a106b48"}}}}}