{
  "_format": "hh-sol-artifact-1",
  "contractName": "IncidentWasteLog",
  "sourceName": "contracts/IncidentWasteLog.sol",
  "abi": [
    {
      "anonymous": false,
      "inputs": [
        {
          "indexed": false,
          "internalType": "uint256",
          "name": "id",
          "type": "uint256"
        },
        {
          "indexed": false,
          "internalType": "string",
          "name": "description",
          "type": "string"
        },
        {
          "indexed": false,
          "internalType": "address",
          "name": "reporter",
          "type": "address"
        },
        {
          "indexed": false,
          "internalType": "uint256",
          "name": "timestamp",
          "type": "uint256"
        }
      ],
      "name": "IncidentReported",
      "type": "event"
    },
    {
      "anonymous": false,
      "inputs": [
        {
          "indexed": false,
          "internalType": "uint256",
          "name": "id",
          "type": "uint256"
        },
        {
          "indexed": false,
          "internalType": "string",
          "name": "materialType",
          "type": "string"
        },
        {
          "indexed": false,
          "internalType": "uint256",
          "name": "quantity",
          "type": "uint256"
        },
        {
          "indexed": false,
          "internalType": "string",
          "name": "site",
          "type": "string"
        },
        {
          "indexed": false,
          "internalType": "address",
          "name": "logger",
          "type": "address"
        },
        {
          "indexed": false,
          "internalType": "uint256",
          "name": "timestamp",
          "type": "uint256"
        }
      ],
      "name": "WasteLogged",
      "type": "event"
    },
    {
      "inputs": [],
      "name": "incidentCount",
      "outputs": [
        {
          "internalType": "uint256",
          "name": "",
          "type": "uint256"
        }
      ],
      "stateMutability": "view",
      "type": "function"
    },
    {
      "inputs": [
        {
          "internalType": "string",
          "name": "materialType",
          "type": "string"
        },
        {
          "internalType": "uint256",
          "name": "quantity",
          "type": "uint256"
        },
        {
          "internalType": "string",
          "name": "site",
          "type": "string"
        }
      ],
      "name": "logWaste",
      "outputs": [],
      "stateMutability": "nonpayable",
      "type": "function"
    },
    {
      "inputs": [
        {
          "internalType": "string",
          "name": "description",
          "type": "string"
        }
      ],
      "name": "reportIncident",
      "outputs": [],
      "stateMutability": "nonpayable",
      "type": "function"
    },
    {
      "inputs": [],
      "name": "wasteLogCount",
      "outputs": [
        {
          "internalType": "uint256",
          "name": "",
          "type": "uint256"
        }
      ],
      "stateMutability": "view",
      "type": "function"
    }
  ],
  "bytecode": "0x608060405234801561001057600080fd5b50610640806100206000396000f3fe608060405234801561001057600080fd5b506004361061004c5760003560e01c80631c4077d9146100515780633310d9621461006d578063a09b86ac14610089578063e39c69e1146100a7575b600080fd5b61006b600480360381019061006691906102e4565b6100c5565b005b61008760048036038101906100829190610363565b61011e565b005b61009161017e565b60405161009e91906103fd565b60405180910390f35b6100af610184565b6040516100bc91906103fd565b60405180910390f35b6000808154809291906100d790610447565b91905055507fae643f6e054de1b54c8f7fbb30a86bbd12b5d8eaab1c0d85e885fd37ee9b9a09600054823342604051610113949392919061054f565b60405180910390a150565b6001600081548092919061013190610447565b91905055507f078c61106e782df4dc16e4975e8998d11032d245f535856bcb2cd59dd21d5dc460015484848433426040516101719695949392919061059b565b60405180910390a1505050565b60005481565b60015481565b6000604051905090565b600080fd5b600080fd5b600080fd5b600080fd5b6000601f19601f8301169050919050565b7f4e487b7100000000000000000000000000000000000000000000000000000000600052604160045260246000fd5b6101f1826101a8565b810181811067ffffffffffffffff821117156102105761020f6101b9565b5b80604052505050565b600061022361018a565b905061022f82826101e8565b919050565b600067ffffffffffffffff82111561024f5761024e6101b9565b5b610258826101a8565b9050602081019050919050565b82818337600083830152505050565b600061028761028284610234565b610219565b9050828152602081018484840111156102a3576102a26101a3565b5b6102ae848285610265565b509392505050565b600082601f8301126102cb576102ca61019e565b5b81356102db848260208601610274565b91505092915050565b6000602082840312156102fa576102f9610194565b5b600082013567ffffffffffffffff81111561031857610317610199565b5b610324848285016102b6565b91505092915050565b6000819050919050565b6103408161032d565b811461034b57600080fd5b50565b60008135905061035d81610337565b92915050565b60008060006060848603121561037c5761037b610194565b5b600084013567ffffffffffffffff81111561039a57610399610199565b5b6103a6868287016102b6565b93505060206103b78682870161034e565b925050604084013567ffffffffffffffff8111156103d8576103d7610199565b5b6103e4868287016102b6565b9150509250925092565b6103f78161032d565b82525050565b600060208201905061041260008301846103ee565b92915050565b7f4e487b7100000000000000000000000000000000000000000000000000000000600052601160045260246000fd5b60006104528261032d565b91507fffffffffffffffffffffffffffffffffffffffffffffffffffffffffffffffff820361048457610483610418565b5b600182019050919050565b600081519050919050565b600082825260208201905092915050565b60005b838110156104c95780820151818401526020810190506104ae565b60008484015250505050565b60006104e08261048f565b6104ea818561049a565b93506104fa8185602086016104ab565b610503816101a8565b840191505092915050565b600073ffffffffffffffffffffffffffffffffffffffff82169050919050565b60006105398261050e565b9050919050565b6105498161052e565b82525050565b600060808201905061056460008301876103ee565b818103602083015261057681866104d5565b90506105856040830185610540565b61059260608301846103ee565b95945050505050565b600060c0820190506105b060008301896103ee565b81810360208301526105c281886104d5565b90506105d160408301876103ee565b81810360608301526105e381866104d5565b90506105f26080830185610540565b6105ff60a08301846103ee565b97965050505050505056fea2646970667358221220193cd3f5581eefb72c9210105116dd5c13d7a1361004ad08d30b6776ae4ab6a364736f6c63430008140033",
  "linkReferences": {},
  "deployedLinkReferences": {}
}